{
  "contractName": "StoreCustomers",
  "abi": [
    {
      "inputs": [],
      "stateMutability": "nonpayable",
      "type": "constructor"
    },
    {
      "inputs": [],
      "name": "count",
      "outputs": [
        {
          "internalType": "uint32",
          "name": "",
          "type": "uint32"
        }
      ],
      "stateMutability": "view",
      "type": "function",
      "constant": true
    },
    {
      "inputs": [
        {
          "internalType": "uint32",
          "name": "",
          "type": "uint32"
        }
      ],
      "name": "customers",
      "outputs": [
        {
          "internalType": "string",
          "name": "name",
          "type": "string"
        },
        {
          "internalType": "uint8",
          "name": "age",
          "type": "uint8"
        }
      ],
      "stateMutability": "view",
      "type": "function",
      "constant": true
    },
    {
      "inputs": [
        {
          "components": [
            {
              "internalType": "string",
              "name": "name",
              "type": "string"
            },
            {
              "internalType": "uint8",
              "name": "age",
              "type": "uint8"
            }
          ],
          "internalType": "struct StoreCustomers.Customer",
          "name": "customer",
          "type": "tuple"
        }
      ],
      "name": "addCustomer",
      "outputs": [],
      "stateMutability": "nonpayable",
      "type": "function"
    },
    {
      "inputs": [
        {
          "internalType": "uint32",
          "name": "id",
          "type": "uint32"
        }
      ],
      "name": "getCustomer",
      "outputs": [
        {
          "components": [
            {
              "internalType": "string",
              "name": "name",
              "type": "string"
            },
            {
              "internalType": "uint8",
              "name": "age",
              "type": "uint8"
            }
          ],
          "internalType": "struct StoreCustomers.Customer",
          "name": "",
          "type": "tuple"
        }
      ],
      "stateMutability": "view",
      "type": "function",
      "constant": true
    },
    {
      "inputs": [
        {
          "internalType": "uint32",
          "name": "id",
          "type": "uint32"
        },
        {
          "components": [
            {
              "internalType": "string",
              "name": "name",
              "type": "string"
            },
            {
              "internalType": "uint8",
              "name": "age",
              "type": "uint8"
            }
          ],
          "internalType": "struct StoreCustomers.Customer",
          "name": "newCustomer",
          "type": "tuple"
        }
      ],
      "name": "editCustomer",
      "outputs": [],
      "stateMutability": "nonpayable",
      "type": "function"
    },
    {
      "inputs": [
        {
          "internalType": "uint32",
          "name": "id",
          "type": "uint32"
        }
      ],
      "name": "removeCustomer",
      "outputs": [],
      "stateMutability": "nonpayable",
      "type": "function"
    }
  ],
  "bytecode": "0x60a06040526002805463ffffffff1916905534801561001d57600080fd5b5033608052608051610b1061003d60003960006102950152610b106000f3fe608060405234801561001057600080fd5b50600436106100625760003560e01c806306661abd146100675780630fdd0cde1461009157806334347690146100a657806385ec526d146100b9578063cf7a4639146100d9578063d39e50e1146100ec575b600080fd5b6000546100779063ffffffff1681565b60405163ffffffff90911681526020015b60405180910390f35b6100a461009f3660046107eb565b61010d565b005b6100a46100b4366004610839565b61028a565b6100cc6100c7366004610839565b61042a565b60405161008891906108a1565b6100a46100e73660046108d6565b610504565b6100ff6100fa366004610839565b610569565b604051610088929190610913565b63ffffffff8216600090815260016020526040808220815180830190925280548290829061013a90610938565b80601f016020809104026020016040519081016040528092919081815260200182805461016690610938565b80156101b35780601f10610188576101008083540402835291602001916101b3565b820191906000526020600020905b81548152906001019060200180831161019657829003601f168201915b50505091835250506001919091015460ff166020909101528051519091506000036101dd57505050565b815151158015906101ff57508051825180516020918201208251919092012014155b1561020957815181525b6000826020015160ff1611801561022e5750816020015160ff16816020015160ff1614155b156102415760208083015160ff16908201525b63ffffffff831660009081526001602052604090208151829190819061026790826109c1565b50602091909101516001909101805460ff191660ff909216919091179055505050565b336001600160a01b037f000000000000000000000000000000000000000000000000000000000000000016146102fc5760405162461bcd60e51b815260206004820152601360248201527221b0b63632b91034b9903737ba1037bbb732b960691b604482015260640160405180910390fd5b63ffffffff8116600090815260016020526040808220815180830190925280548290829061032990610938565b80601f016020809104026020016040519081016040528092919081815260200182805461035590610938565b80156103a25780601f10610377576101008083540402835291602001916103a2565b820191906000526020600020905b81548152906001019060200180831161038557829003601f168201915b50505091835250506001919091015460ff16602090910152805151909150156104265763ffffffff82166000908152600160205260408120906103e5828261064b565b50600101805460ff191690556000805463ffffffff16908061040683610a97565b91906101000a81548163ffffffff021916908363ffffffff160217905550505b5050565b60408051808201909152606081526000602082015263ffffffff821660009081526001602052604090819020815180830190925280548290829061046d90610938565b80601f016020809104026020016040519081016040528092919081815260200182805461049990610938565b80156104e65780601f106104bb576101008083540402835291602001916104e6565b820191906000526020600020905b8154815290600101906020018083116104c957829003601f168201915b50505091835250506001919091015460ff1660209091015292915050565b600061050e610610565b63ffffffff8116600090815260016020526040902083519192508391819061053690826109c1565b50602091909101516001909101805460ff191660ff9092169190911790556000805463ffffffff16908061040683610ab7565b60016020526000908152604090208054819061058490610938565b80601f01602080910402602001604051908101604052809291908181526020018280546105b090610938565b80156105fd5780601f106105d2576101008083540402835291602001916105fd565b820191906000526020600020905b8154815290600101906020018083116105e057829003601f168201915b5050506001909301549192505060ff1682565b600280546000919082906106299063ffffffff16610ab7565b91906101000a81548163ffffffff021916908363ffffffff1602179055905090565b50805461065790610938565b6000825580601f10610667575050565b601f0160209004906000526020600020908101906106859190610688565b50565b5b8082111561069d5760008155600101610689565b5090565b803563ffffffff811681146106b557600080fd5b919050565b634e487b7160e01b600052604160045260246000fd5b6040805190810167ffffffffffffffff811182821017156106f3576106f36106ba565b60405290565b604051601f8201601f1916810167ffffffffffffffff81118282101715610722576107226106ba565b604052919050565b803560ff811681146106b557600080fd5b60006040828403121561074d57600080fd5b6107556106d0565b9050813567ffffffffffffffff8082111561076f57600080fd5b818401915084601f83011261078357600080fd5b8135602082821115610797576107976106ba565b6107a9601f8301601f191682016106f9565b925081835286818386010111156107bf57600080fd5b818185018285013760008183850101528285526107dd81870161072a565b818601525050505092915050565b600080604083850312156107fe57600080fd5b610807836106a1565b9150602083013567ffffffffffffffff81111561082357600080fd5b61082f8582860161073b565b9150509250929050565b60006020828403121561084b57600080fd5b610854826106a1565b9392505050565b6000815180845260005b8181101561088157602081850181015186830182015201610865565b506000602082860101526020601f19601f83011685010191505092915050565b6020815260008251604060208401526108bd606084018261085b565b905060ff60208501511660408401528091505092915050565b6000602082840312156108e857600080fd5b813567ffffffffffffffff8111156108ff57600080fd5b61090b8482850161073b565b949350505050565b604081526000610926604083018561085b565b905060ff831660208301529392505050565b600181811c9082168061094c57607f821691505b60208210810361096c57634e487b7160e01b600052602260045260246000fd5b50919050565b601f8211156109bc57600081815260208120601f850160051c810160208610156109995750805b601f850160051c820191505b818110156109b8578281556001016109a5565b5050505b505050565b815167ffffffffffffffff8111156109db576109db6106ba565b6109ef816109e98454610938565b84610972565b602080601f831160018114610a245760008415610a0c5750858301515b600019600386901b1c1916600185901b1785556109b8565b600085815260208120601f198616915b82811015610a5357888601518255948401946001909101908401610a34565b5085821015610a715787850151600019600388901b60f8161c191681555b5050505050600190811b01905550565b634e487b7160e01b600052601160045260246000fd5b600063ffffffff821680610aad57610aad610a81565b6000190192915050565b600063ffffffff808316818103610ad057610ad0610a81565b600101939250505056fea26469706673582212205daf90b9206180416ec6645f7c19b80780869458eabc8292ff8653199784b95564736f6c63430008110033",
  "immutableReferences": {
    "3": [
      {
        "length": 32,
        "start": 661
      }
    ]
  },
  "source": "// SPDX-License-Identifier: MIT\npragma solidity ^0.8.17;\n\ncontract StoreCustomers {\n    address private immutable owner;\n    uint32 public count;\n\n    constructor() {\n        owner = msg.sender;\n    }\n\n    struct Customer {\n        string name;\n        uint8 age;\n    }\n\n    mapping(uint32 => Customer) public customers;\n\n    uint32 private nextId = 0;\n\n    function getNextId() private returns (uint32) {\n        return ++nextId;\n    }\n\n    function compareStrings(string memory a, string memory b)\n        private\n        pure\n        returns (bool)\n    {\n        return keccak256(bytes(a)) == keccak256(bytes(b));\n    }\n\n    function addCustomer(Customer memory customer) public {\n        uint32 id = getNextId();\n        customers[id] = customer;\n        count++;\n    }\n\n    function getCustomer(uint32 id) public view returns (Customer memory) {\n        return customers[id];\n    }\n\n    function editCustomer(uint32 id, Customer memory newCustomer) public {\n        Customer memory oldCustomer = customers[id];\n        if (bytes(oldCustomer.name).length == 0) return;\n\n        if (bytes(newCustomer.name).length > 0 && !compareStrings(oldCustomer.name, newCustomer.name))\n            oldCustomer.name = newCustomer.name;\n\n        if (newCustomer.age > 0 && oldCustomer.age != newCustomer.age)\n            oldCustomer.age = newCustomer.age;\n\n        customers[id] = oldCustomer;\n    }\n\n    function removeCustomer(uint32 id) public {\n        require(msg.sender == owner, \"Caller is not owner\");\n        Customer memory oldCustomer = customers[id];\n        if (bytes(oldCustomer.name).length > 0) {\n            delete customers[id];\n            count--;\n        }\n    }\n}\n",
  "sourcePath": "/Users/luiztools/NodeProjects/web3-examples/crud-solidity/contracts/StoreCustomers.sol",
  "compiler": {
    "name": "solc",
    "version": "0.8.17+commit.8df45f5f.Emscripten.clang"
  },
  "schemaVersion": "3.4.9",
  "updatedAt": "2022-09-22T19:11:01.043Z",
  "networkType": "ethereum",
  "devdoc": {
    "kind": "dev",
    "methods": {},
    "version": 1
  },
  "userdoc": {
    "kind": "user",
    "methods": {},
    "version": 1
  }
}