{
  "contractName": "HelloWorld",
  "abi": [
    {
      "inputs": [],
      "name": "message",
      "outputs": [
        {
          "internalType": "string",
          "name": "",
          "type": "string"
        }
      ],
      "stateMutability": "view",
      "type": "function"
    },
    {
      "inputs": [],
      "name": "helloWorld",
      "outputs": [
        {
          "internalType": "string",
          "name": "",
          "type": "string"
        }
      ],
      "stateMutability": "view",
      "type": "function"
    }
  ],
  "bytecode": "0x60c0604052600c60809081526b48656c6c6f20576f726c642160a01b60a05260009061002b90826100dd565b5034801561003857600080fd5b5061019c565b634e487b7160e01b600052604160045260246000fd5b600181811c9082168061006857607f821691505b60208210810361008857634e487b7160e01b600052602260045260246000fd5b50919050565b601f8211156100d857600081815260208120601f850160051c810160208610156100b55750805b601f850160051c820191505b818110156100d4578281556001016100c1565b5050505b505050565b81516001600160401b038111156100f6576100f661003e565b61010a816101048454610054565b8461008e565b602080601f83116001811461013f57600084156101275750858301515b600019600386901b1c1916600185901b1785556100d4565b600085815260208120601f198616915b8281101561016e5788860151825594840194600190910190840161014f565b508582101561018c5787850151600019600388901b60f8161c191681555b5050505050600190811b01905550565b61023f806101ab6000396000f3fe608060405234801561001057600080fd5b50600436106100365760003560e01c8063c605f76c1461003b578063e21f37ce14610059575b600080fd5b610043610061565b6040516100509190610181565b60405180910390f35b6100436100f3565b606060008054610070906101cf565b80601f016020809104026020016040519081016040528092919081815260200182805461009c906101cf565b80156100e95780601f106100be576101008083540402835291602001916100e9565b820191906000526020600020905b8154815290600101906020018083116100cc57829003601f168201915b5050505050905090565b60008054610100906101cf565b80601f016020809104026020016040519081016040528092919081815260200182805461012c906101cf565b80156101795780601f1061014e57610100808354040283529160200191610179565b820191906000526020600020905b81548152906001019060200180831161015c57829003601f168201915b505050505081565b600060208083528351808285015260005b818110156101ae57858101830151858201604001528201610192565b506000604082860101526040601f19601f8301168501019250505092915050565b600181811c908216806101e357607f821691505b60208210810361020357634e487b7160e01b600052602260045260246000fd5b5091905056fea26469706673582212206700272d7e70e9460e8304f44c7990cf3477581e0fb7cf753babfb0af857713764736f6c63430008110033",
  "immutableReferences": {},
  "source": "// SPDX-License-Identifier: MIT\npragma solidity 0.8.17;\n\n/// @title A title that should describe the contract/interface\n/// @author The name of the author\n/// @notice Explain to an end user what this does\n/// @dev Explain to a developer any extra details\n\ncontract HelloWorld {\n    string public message = \"Hello World!\";\n\n    function helloWorld() public view returns (string memory) {\n        return message;\n    }\n}\n",
  "sourcePath": "/Users/luiztools/NodeProjects/hello-solidity/contracts/HelloWorld.sol",
  "compiler": {
    "name": "solc",
    "version": "0.8.17+commit.8df45f5f.Emscripten.clang"
  },
  "schemaVersion": "3.4.9",
  "updatedAt": "2022-09-10T20:56:36.626Z",
  "devdoc": {
    "author": "The name of the author",
    "details": "Explain to a developer any extra details",
    "kind": "dev",
    "methods": {},
    "title": "A title that should describe the contract/interface",
    "version": 1
  },
  "userdoc": {
    "kind": "user",
    "methods": {},
    "notice": "Explain to an end user what this does",
    "version": 1
  }
}